:0300230002008751
:10008700C0E0C0F0C083C082C0D075D000C000C03F
:1000970001C002C003C004C005C006C00730981BDA
:1000A700AF991201CF85990DE50DFD7C00E4FF1294
:1000B70001367F057E0012018EC298D007D006D088
:1000C70005D004D003D002D001D000D0D0D082D048
:0600D70083D0F0D0E032FE
:1001750012015A1200268F0EE50EB403F6E4FF12A3
:0901850000DD8F0F1201CF80EAAA
:10015A0053877F75985053890F438920758BFA7599
:0B016A008DFAC2ABD28ED2AFD2AC2215
:0801CF008F993099FDC29922BD
:10018E00EF1FAC0670011E4C600B007D027CC7DCBD
:05019E00FEDDFC80EB1A
:0101A3002239
:10002600E4F50B20B1137F14FE12018E30B1FD7F73
:10003600147E0012018E750B0120B0147F147E0011
:1000460012018E30B0FD7F147E0012018E750B02F8
:1000560020B2147F147E0012018E30B2FD7F147E12
:100066000012018E750B0320B3147F147E0012015B
:100076008E30B3FD7F147E0012018E750B04AF0B1C
:010086002257
:100136008F088C098D0A1201C67FA012010D1201CB
:10014600A4AF0812010D1201A4AF0A12010D12018B
:04015600A40201D727
:0200DD008F0B87
:1000DF001201C67FA012010D1201A4AF0B12010D68
:1000EF001201A41201C67FA112010D1201A4120068
:0D00FF00038F0C7F011201BC1201D7AF0C62
:01010C0022D0
:0901C600D2A0D2A1C2A0C2A12264
:0701D700C2A0D2A1D2A022B8
:02010D00AD073C
:10010F00E4FB74807E00A803088006CEA2E713CE1E
:10011F0013D8F8FFEDF582EF558224FF92A0D2A1FC
:06012F00C2A10BBB08DCBD
:0101350022A7
:10000300E4FFD2A0FED2A130A00D7480A806088020
:0D00130002C313D8FC4207C2A10EBE08E8CC
:0100200022BD
:0A01BC00EF24FF92A0D2A1C2A122FD
:0B01A400D2A0D2A1A2A0E433FFC2A1B0
:0101AF00222D
:030000000201B04A
:0C01B000787FE4F6D8FD75810F02017520
:00000001FF
