:04000300020E0101E7
:100114001201527E017F7CE4FD1200E97E017F8A98
:100124007D011200E9E4F510C2A7C2A07851E6F5FA
:04013400810201380B
:1001380074512510F8A6810510E510B40203E4F502
:0A0148001074512510F8E6F581222D
:0E017C007FE87E0312009AB2A012013880F2D2
:0E018A007FF47E0112009AB2A712013880F2B3
:1000E900AB07AA06AF02EDC43354E02412F8A60701
:1000F900AF03EDC43354E02411F8A607EDC433541B
:0B010900E02412FF74512DF8A607221D
:03000B0002016986
:10016900C0E0758A18758CFC050DE50D7002050C4B
:03017900D0E032A1
:10009A00740E2510F8E6B4011BE50D2FFFE50C3EA2
:1000AA00FEE51025E02408F8A60608A607740E2522
:1000BA0010F8E4F6740E2510F8E67022E51025E033
:1000CA002408F8E6FE08E6FFC3E50D9FE50C9E400E
:0F00DA0008740E2510F876012212013880D62204
:100152005389F0438901C28DD28C758A18758CFC43
:07016200D2A9D2AFC2B922FD
:0300000002000EED
:0C000E00787FE4F6D8FD758152020055A1
:10001A00020114E493A3F8E493A34003F68001F2E7
:10002A0008DFF48029E493A3F85407240CC8C333E7
:10003A00C4540F4420C8834004F456800146F6DFB6
:10004A00E4800B0102040810204080900003E47E43
:10005A00019360BCA3FF543F30E509541FFEE493AB
:10006A00A360010ECF54C025E060A840B8E493A372
:10007A00FAE493A3F8E493A3C8C582C8CAC583CA9D
:10008A00F0A3C8C582C8CAC583CADFE9DEE780BE55
:0100070000F8
:00000001FF
