:06000300010800010900E4
:03000B0002009A56
:0D009A00C0E0C0F0C0D075D000C000C006AE
:1000A700758A18758CFC0517E51770020516750813
:1000B70000E50875F006A4240FF8E67040E508751A
:1000C700F006A4240DF8E6FE08E6D39400EE9400AB
:1000D7004010E50875F006A4240DF808E616187018
:1000E7000116E50875F006A4240DF8E6FE08E64EAD
:1000F700700BE50875F006A4240FF876010508E5EE
:0401070008B402AD89
:0B010B00D006D000D0D0D0F0D0E03201
:10017600EF75F006A4240DF8A60408A605EF75F0A1
:0801860006A4240FF8E4F622A0
:10011600E4F509E50975F006A4240FF8E6B4012212
:10012600E50975F006A4240DF8E6FE08E64E701201
:10013600E50975F006A4240AF808E6FA08E6F912B5
:0D01460001C60509C3E5096480948240C626
:010153002289
:0B01A500B2A07DE87C03E4FF020176BD
:0B01B000B2A27DF47C017F0102017609
:10015400750AFF750B01750CA5E4F50DF50E750F09
:10016400017510FF7511017512B0F513F5147515AD
:02017400012266
:0B01BB0012018E12015412011680FB8D
:10018E005389F0438901C28DD28C758A18758CFC07
:07019E00D2A9D2AFC2B922C1
:0300000002000EED
:0C000E00787FE4F6D8FD758117020055DC
:0601C6008A838982E473C4
:10001A000201BBE493A3F8E493A34003F68001F240
:10002A0008DFF48029E493A3F85407240CC8C333E7
:10003A00C4540F4420C8834004F456800146F6DFB6
:10004A00E4800B0102040810204080900003E47E43
:10005A00019360BCA3FF543F30E509541FFEE493AB
:10006A00A360010ECF54C025E060A840B8E493A372
:10007A00FAE493A3F8E493A3C8C582C8CAC583CA9D
:10008A00F0A3C8C582C8CAC583CADFE9DEE780BE55
:0100090000F6
:00000001FF
