:10000E000000F88CF8F3F95BF9B8FA15FA67FAB94B
:10001E00FB04FB4BFB90FBCFFC10FC44FC79FCACCF
:10002E00FCDCFD09FD34FD5CFD82FDA6FDC8FDE88E
:10003E00FE06FE22FE3DFE56FE6EFE85FE9AFEAECC
:10004E00FEC1FED3FEE4FEF4FF030F011101120107
:10005E0014011602000114011201140116011902F5
:10006E00000116011401120100010F01110112010C
:10007E0014011602000114011201140116011902D5
:10008E000001140200010001000114011401160107
:10009E0019021402000112010F010D010F011102CC
:1000AE0000010F02000100010001140114011601EC
:1000BE0019021402000112010F010D010F011102AC
:1000CE00000111020001000100010F0111011401D4
:1000DE0016021402000112010F010F011101140288
:1000EE00000116020001000100010F0111011401AF
:1000FE0016021402000112010F010F011101140268
:10010E000001120200010001000114011601190183
:10011E001B0219021601140111010F011101140223
:10012E00000111020001000100010F011101140173
:10013E001602190216011401120111011401160200
:10014E000001140200010001000114011601190141
:10015E001B0219021601140111010F0111011402E3
:10016E000001110200010001000114011601190223
:10017E001601140211010F010D010F0111010F02E1
:10018E0000010D020001000100010F011101140216
:10019E0011010F0200010D0100010D02000200020B
:0101AE00FF51
:1001AF00E4F50C12023F7458250BF5827400350AE2
:1001BF00F583E493FFF460387508008F09050BE5AC
:1001CF000B7002050A2458F5827400350AF583E492
:1001DF009375F0FAA4FFAEF0120256050BE50B7003
:1001EF0002050AC28C7F057E00120256D28C80B6A1
:0401FF00C28C80FE30
:03000B00020203EB
:10020300C0E0C083C082C0D075D000C006C007E57F
:100213000925E0FFE50833FE740E2FF58274003ED6
:10022300F583E493FE740193F58AEEF58CB2A5D0C1
:0C02330007D006D0D0D082D083D0E032BB
:10025600EF1FAC0670011E4C600B007D027CC7DCF4
:05026600FEDDFC80EB51
:01026B002270
:10023F005389F0438901C28DD28C758A66758CFC07
:07024F00D2A9D2AFC2B9220F
:0300000002026C8D
:0C026C00787FE4F6D8FD75810C0201AF2C
:00000001FF
